:020000040800F2
:1000000000080020810800080109000845080008D0
:1000100000000000000000000000000000000000E0
:1000200000000000000000000000000001090008BE
:10003000000000000000000001090008010900089C
:100040000109000801090008010900080109000868
:100050000109000801090008010900080109000858
:100060000000000009080008010900080109000853
:10007000010900080109000800000000010900084A
:100080000000000000000000000000000000000070
:10009000D50700080000000000000000010900086A
:1000A000000000000109000800000000000000003E
:1000B000010900080109000800000000000000001C
:1000C000002243088B4274D303098B425FD3030A97
:1000D0008B4244D3030B8B4228D3030C8B420DD3AA
:1000E000FF22090212BA030C8B4202D31212090238
:1000F00065D0030B8B4219D300E0090AC30B8B4276
:1001000001D3CB03C01A5241830B8B4201D38B0323
:10011000C01A5241430B8B4201D34B03C01A5241C8
:10012000030B8B4201D30B03C01A5241C30A8B420B
:1001300001D3CB02C01A5241830A8B4201D38B02F6
:10014000C01A5241430A8B4201D34B02C01A52419A
:10015000030A8B4201D30B02C01A5241CDD2C3090C
:100160008B4201D3CB01C01A524183098B4201D388
:100170008B01C01A524143098B4201D34B01C01A73
:10018000524103098B4201D30B01C01A5241C308EB
:100190008B4201D3CB00C01A524183088B4201D35A
:1001A0008B00C01A524143088B4201D34B00C01A46
:1001B0005241411A00D20146524110467047FFE7B2
:1001C00001B5002000F006F802BDC0460029F7D0B6
:1001D00076E770477047C04603B47146490840004F
:1001E0004900095E49008E4403BC70470448054B32
:1001F00010B5834203D0044B002B00D0984710BDAC
:100200005000002050000020000000000648074970
:10021000091A8B10C90FC91810B5491003D0044B27
:10022000002B00D0984710BD500000205000002047
:100230000000000010B5074C2378002B09D1FFF710
:10024000D5FF054B002B02D0044800E000BF01237E
:10025000237010BD50000020000000000C100008AA
:10026000054B10B5002B03D00449054800E000BF42
:10027000FFF7CCFF10BDC046000000005400002076
:100280000C10000870B500260C4C0D4D641BA4101A
:10029000A64209D1002600F0B9FE0A4C0A4D641BA3
:1002A000A410A64205D170BDB300EB5898470136A3
:1002B000EEE7B300EB5898470136F2E7601000080C
:1002C0006010000864100008601000087047704754
:1002D00070B505000C1E10D0043C2368002B00DA1A
:1002E000E418280000F0E0F81D4A1368002B05D13F
:1002F00063601460280000F0DFF870BDA34208D9E5
:10030000206821188B42F3D119685B6809182160B5
:10031000EEE71A005B68002B01D0A342F9D91168FF
:100320005018A0420BD12068091850181160834260
:10033000E0D118685B68411811605360DAE7A042A9
:1003400002D90C232B60D5E7206821188B4203D1FA
:1003500019685B680918216063605460CAE7C04689
:10036000B001002070B50F4E0D0031680400002967
:1003700002D100F0A9F830602900200000F0A4F8B4
:10038000431C03D101256D42280070BD0323C51C09
:100390009D43A842F8D0291A200000F095F80130BA
:1003A000F2D1EFE7AC010020F7B50322CB1C934359
:1003B000083305001F000C2B34D20C27B94233D868
:1003C000280000F071F8374E33681C00002C2FD144
:1003D00039002800FFF7C6FF0400431C5FD13468D2
:1003E0000094009B002B4AD1002C52D02368280097
:1003F000E3180099019300F067F8019B834248D10C
:1004000023682800FF1A3900FFF7ACFF013040D005
:100410002368DB19236033685A68002A33D1009BB4
:10042000336019E0002BC9DA0C232B600020FEBDDD
:100430002168C91B20D40B290AD9E2192760A342DD
:1004400004D1326063681160536005E05A60F9E7D7
:100450006268A3420ED13260280000F02DF820001F
:1004600007220B30231D9043C21A9842DFD01B1A7B
:10047000A350DCE75A60EFE723006468A6E7009C1E
:1004800063680093ADE71A005B68A342FBD10023C9
:10049000DAE70C2328002B6000F00EF8C6E70760AF
:1004A000DAE7C046B001002010B50248FFF70EFFA2
:1004B00010BDC046A801002010B50248FFF707FF95
:1004C00010BDC046A8010020002370B5064D0400F1
:1004D00008002B6000F08CFD431C03D12B68002B1F
:1004E00000D0236070BDC046A401002080B582B05A
:1004F00000AF0200FB1D1A70FB1D1B787F2B09D873
:10050000FB1D1B781A001F231A40044B0121914048
:100510000A001A60C046BD4602B080BD00E100E09E
:1005200080B500AF244B5A6B234B01210A435A6319
:10053000214B9A6B204B802149050A439A631F4B3C
:100540001A681E4B802149000A431A601A4B1A6828
:10055000194B802149000A431A60C046164B1A689D
:1005600080239B001340F9D0134B5B68144A1A4058
:10057000114BA02109020A435A60C0460E4B1A686B
:1005800080239B001340F9D00B4B0022DA600A4B0A
:100590001A6D094B01210A431A65C046064B1B6DB3
:1005A00002221340FAD0074B1A68064B01218A43F6
:1005B0001A60C046BD4680BD001002400070004079
:1005C000FF1FFFFF0020024080B500AF144BDA6A26
:1005D000134B01210A43DA62A023DB051A68A0232A
:1005E000DB050F210A431A60A023DB051A68A0234C
:1005F000DB050C490A401A60A023DB051A68A0231A
:10060000DB05802109030A431A60A023DB055A6A2F
:10061000A023DB0540210A435A62C046BD4680BD87
:1006200000100240FFFFF3FF80B500AF0E4B5A6B86
:100630000D4B04210A435A630C4BD1229A620B4B97
:100640003122DA62094BDA68084B01210A43DA6089
:100650001420FFF74BFF054B1A68044B01210A4396
:100660001A60C046BD4680BD00100240000801402F
:1006700080B500AF254B5A6B244B802189000A437B
:100680005A63224B1A6B214B01210A431A63204BF8
:100690001A681F4B8021C9020A431A601D4BDA6891
:1006A0001C4B18218A43DA601A4BDA68194B032174
:1006B0000A43DA60174B1A69164B8021C9050A43B1
:1006C0001A61144B03229A62124B06225A61124B92
:1006D000124A9A60104B124ADA600F4B02225A609B
:1006E0000D4B104A1A600B4B9A680A4B01210A43C2
:1006F0009A60C046074B1B6801221340FAD00920BC
:10070000FFF7F4FEC046BD4680BDC0460010024063
:100710000827014000240140080002404024014015
:10072000B4010020A320000080B500AF0B4B9A6BF2
:100730000A4B802189020A439A63094B1222DA602C
:10074000074B09221A60C046054BDA6980239B03D8
:100750001340F9D0C046C046BD4680BD00100240DF
:100760000044004080B58CB002AF0200BB1D1A806F
:100770003B1D0A1C1A80BB1D19883B1D1B88134A90
:100780000C20381800930B00142100F0BBF8030074
:100790003B6200237B620FE0C0460D4BDB69802289
:1007A0001340FAD00C23FA187B6AD3181A78084B36
:1007B0009A627B6A01337B627A6A3B6A9A42EBDB1C
:1007C000C046C046BD460AB080BDC04624100008E1
:1007D0000044004080B500AF094B1B690122134063
:1007E0000BD0074B1A69064B01218A431A61054B4E
:1007F0009A68044B04210A439A60C046BD4680BDF6
:10080000000801400024014080B500AF0B4B1B687D
:10081000022213400FD0094B5A68084B02210A43A9
:100820005A60074B1B889AB2054B5B889BB2190034
:100830001000FFF797FFC046BD4680BD0000024094
:10084000B401002080B500AFC046FDE780B500AF21
:10085000074B802212059A60FFF762FEFFF7B4FE95
:10086000FFF706FFFFF760FFFFF7DEFE30BFFDE793
:1008700000ED00E080B500AFC046BD4680BD000081
:1008800013488546FFF7F6FF12480168090E124A21
:10089000914205D111481249016012481249016084
:1008A00012481349134A002302E0D458C4500433B9
:1008B000C4188C42F9D3104A104C002301E0136095
:1008C0000432A242FBD3FFF7DDFCFFF7BFFFFEE7D8
:1008D00000080020040000001F0000003410024047
:1008E00001000000000001400000000000000020A6
:1008F000500000206810000850000020BC010020BB
:10090000FEE700000CB430B5174B0C001D689DB01D
:10091000002908DA8B2301202B6040421DB030BC37
:1009200008BC02B01847822302A99B008B810023D8
:1009300002904B6608619C4200D0631E8B604B6145
:1009400001235B42CB81280021AB209A019300F068
:1009500071F8431C01DA8B232B60002CDED00022BF
:10096000029B1A70DAE7C04600000020F0B58E68DE
:1009700085B01F000C00330002900392BE4254D891
:100980000C22885E9022D20010422CD003220969EA
:1009900023685B1A019363695343019ADD0FED18D5
:1009A0007B1C6D109B182A00AB4201D91D001A0058
:1009B000400527D511000298FFF7F6FC061E2AD045
:1009C000019A216900F0D3FAA289194B1A408023B9
:1009D0001343A381019B2661F618266065613E00E2
:1009E000ED1A3B00A5601F003A000399206800F053
:1009F000A1FA0020A3689B1BA3602368DB19236076
:100A000005B0F0BD029800F0BBFA061EE2D12169E4
:100A10000298FFF75DFC0C230120029A404213600C
:100A2000A28934331343A381EAE73E00DCE7C046E2
:100A30007FFBFFFFF0B59FB002901C008B890E007A
:100A400015001B0611D50B69002B0ED14021FFF7B5
:100A5000ABFC30603061002805D10C23029A136092
:100A600001204042D4E0402373610023292102AADF
:100A700052180B9320331370013102AA103352180D
:100A8000137005942C002378002B01D0252B48D11E
:100A9000671BAC420BD03B002A0031000298FFF7E5
:100AA00065FF013000D1AEE00B9BDB190B9323787F
:100AB000002B00D1A7E001225321002352420792CC
:100AC00002AA5218651C06930993089313701C938D
:100AD000554F29780522380000F03EFA6C1C069923
:100AE00006AB00281FD1CA0604D55327202202A82E
:100AF000C01902700A0704D553272B2202A8C01977
:100B000002702A782A2A15D02C0000200A27DA68D9
:100B10002178651C3039092950D9002811D0099253
:100B20000FE00134AFE70123C01B83400B432500D6
:100B30000693CDE7059A101D12680590002A37DB51
:100B4000DA6022782E2A0CD162782A2A3BD1059AC3
:100B50000234111D12680591002A01DA0122524265
:100B60005A60324D03222800217800F0F5F906AFD3
:100B7000002806D04023401B8340069A01341343CB
:100B80000693217806222A48651C397600F0E4F99C
:100B900000283FD0274B002B29D10722059B073384
:100BA0009343083305930B9B03995B180B9369E7F9
:100BB0005242DA6002220A430692C2E77A432C00CC
:100BC00001205218A4E700220A205A6011001300E5
:100BD00001342278651C303A092A03D9002BC0D091
:100BE0000791BEE741432C0001238918F1E705AACC
:100BF000009239003200104B029800E000BF0390D1
:100C0000039B0133CFD1B3890B985B0600D527E74F
:100C10001FB0F0BD05AA009239003200064B0298C1
:100C200000F07CF8EBE7C0462B10000831100008FC
:100C300035100008000000006D090008F7B5160027
:100C400001938A680B690C000090934200DA13004C
:100C50002200336043321278002A01D0013333601E
:100C600023689B0602D5336802333360226806236B
:100C700015001D401A4227D0230043331B785A1E0B
:100C800093412268920630D4220001990098089D71
:100C90004332A847013025D006222368002513409F
:100CA000042B05D13368E568ED1AEB43DB171D40D3
:100CB000A3682269934201DD9B1AED180026B54214
:100CC00020D1002010E00135E36832689B1AAB4266
:100CD000D2DD2200012301990098089F1932B847FC
:100CE0000130F0D101204042FEBD3020E1184331F7
:100CF000087021005A1C45310978A218433202338A
:100D00001170C1E72200012301990098089F1A324F
:100D1000B8470130E6D00136D1E70000F0B58BB01E
:100D200006920A0043320793059003920A7E0C0054
:100D3000109B782A09D8622A0BD8002A00D1BAE081
:100D40007A490491582A00D18EE0250042352A7054
:100D500022E0100063381528F7D8FFF73DFA160097
:100D60001F00F6FFF6FFF6FFF6FF1F00F6FFF6FF87
:100D7000F6FFF6FF9F0036007E00F6FFF6FFB0009C
:100D8000F6FF3600F6FFF6FF820025001A684235AE
:100D9000111D196013682B7001239EE01868096803
:100DA000021D0D060BD506681A60002E03DA2D23EE
:100DB000039A764213705D4B0A27049318E0066885
:100DC0001A604906F1D536B2EFE70868196840C9DC
:100DD000050602D4400600D5B6B21960534B0A2767
:100DE00004936F2A00D1023F2300002243331A707C
:100DF0006368A360002B06DB04212268039D8A43FD
:100E0000226033430CD0039D30003900FFF7DEF938
:100E1000049B013D5B5C2B70330006009F42F3D9BD
:100E2000082F09D12368DB0706D5626823699A4237
:100E300002DC3023013D2B70039B5B1B2361079B6E
:100E4000210000930598069B09AAFFF7F7FE0130E1
:100E500048D1012040420BB0F0BD202209680A436E
:100E60002260782232490491210045310A701968C4
:100E7000226840C9100602D4500600D5B6B21960E7
:100E8000D30702D5202313432360002E01D010275F
:100E9000AAE72022236893432360F8E71A680D68C5
:100EA000101D4969186013682E0601D5196002E00B
:100EB0006D06FBD519800023039D2361BFE71A68E7
:100EC000111D1960156800212800626800F044F8BF
:100ED000002801D0401B6060636823610023039AEF
:100EE0001370ACE72A00236906990598079DA84767
:100EF0000130AED023689B0715D4099BE068984267
:100F0000A9DA1800A7E72200012306990598079E91
:100F10001932B04701309CD00135E368099A9B1A19
:100F2000AB42F0DCE9E70025F7E7C0463C100008DB
:100F30004D10000810B5884202D98B18984208D38A
:100F400000239A4207D0CC5CC4540133F9E78B5C90
:100F50008354013AFBD210BDC9B28218904201D12C
:100F60000020704703788B42FBD00130F6E7002366
:100F700010B59A4200D110BDCC5CC4540133F8E7DF
:100F8000F7B506000C001500002905D11100FFF788
:100F90000BFA04002000FEBD002A03D1FFF798F9E8
:100FA0002C00F7E700F01CF80700854202D8430840
:100FB000AB42EFD329003000FFF7F6F9019000288B
:100FC00001D1019CE6E72A00BD4200D93A00210088
:100FD0000198FFF7CCFF21003000FFF779F9F0E727
:100FE0000B1F1B68181F002B01DA0B58C018704725
:100FF000044A03001068002802D0C3181360704729
:101000000148FAE7B8010020C0010020F8B5C04649
:10101000F8BC08BC9E467047F8B5C046F8BC08BC92
:041020009E46704731
:1010240025752C25750A00232D302B2000686C4C67
:10103400006566674546470030313233343536370C
:101044003839414243444546003031323334353631
:0C10540037383961626364656600000093
:041060006102000821
:041064003502000849
:1010680004000020000000006C000020D4000020D4
:101078003C0100200000000000000000000000000B
:101088000000000000000000000000000000000058
:101098000000000000000000000000000000000048
:1010A8000000000000000000000000000000000038
:040000050800088166
:00000001FF
